{
  "contractName": "SuperMarioWorld",
  "abi": [
    {
      "inputs": [
        {
          "internalType": "string",
          "name": "name",
          "type": "string"
        },
        {
          "internalType": "string",
          "name": "symbol",
          "type": "string"
        }
      ],
      "stateMutability": "nonpayable",
      "type": "constructor"
    },
    {
      "anonymous": false,
      "inputs": [
        {
          "indexed": true,
          "internalType": "address",
          "name": "owner",
          "type": "address"
        },
        {
          "indexed": true,
          "internalType": "address",
          "name": "approved",
          "type": "address"
        },
        {
          "indexed": true,
          "internalType": "uint256",
          "name": "tokenId",
          "type": "uint256"
        }
      ],
      "name": "Approval",
      "type": "event"
    },
    {
      "anonymous": false,
      "inputs": [
        {
          "indexed": true,
          "internalType": "address",
          "name": "owner",
          "type": "address"
        },
        {
          "indexed": true,
          "internalType": "address",
          "name": "operator",
          "type": "address"
        },
        {
          "indexed": false,
          "internalType": "bool",
          "name": "approved",
          "type": "bool"
        }
      ],
      "name": "ApprovalForAll",
      "type": "event"
    },
    {
      "anonymous": false,
      "inputs": [
        {
          "indexed": true,
          "internalType": "address",
          "name": "from",
          "type": "address"
        },
        {
          "indexed": true,
          "internalType": "address",
          "name": "to",
          "type": "address"
        },
        {
          "indexed": true,
          "internalType": "uint256",
          "name": "tokenId",
          "type": "uint256"
        }
      ],
      "name": "Transfer",
      "type": "event"
    },
    {
      "inputs": [
        {
          "internalType": "address",
          "name": "to",
          "type": "address"
        },
        {
          "internalType": "uint256",
          "name": "tokenId",
          "type": "uint256"
        }
      ],
      "name": "approve",
      "outputs": [],
      "stateMutability": "nonpayable",
      "type": "function"
    },
    {
      "inputs": [
        {
          "internalType": "address",
          "name": "owner",
          "type": "address"
        }
      ],
      "name": "balanceOf",
      "outputs": [
        {
          "internalType": "uint256",
          "name": "",
          "type": "uint256"
        }
      ],
      "stateMutability": "view",
      "type": "function",
      "constant": true
    },
    {
      "inputs": [
        {
          "internalType": "uint256",
          "name": "tokenId",
          "type": "uint256"
        }
      ],
      "name": "getApproved",
      "outputs": [
        {
          "internalType": "address",
          "name": "",
          "type": "address"
        }
      ],
      "stateMutability": "view",
      "type": "function",
      "constant": true
    },
    {
      "inputs": [
        {
          "internalType": "address",
          "name": "owner",
          "type": "address"
        },
        {
          "internalType": "address",
          "name": "operator",
          "type": "address"
        }
      ],
      "name": "isApprovedForAll",
      "outputs": [
        {
          "internalType": "bool",
          "name": "",
          "type": "bool"
        }
      ],
      "stateMutability": "view",
      "type": "function",
      "constant": true
    },
    {
      "inputs": [],
      "name": "name",
      "outputs": [
        {
          "internalType": "string",
          "name": "",
          "type": "string"
        }
      ],
      "stateMutability": "view",
      "type": "function",
      "constant": true
    },
    {
      "inputs": [
        {
          "internalType": "uint256",
          "name": "tokenId",
          "type": "uint256"
        }
      ],
      "name": "ownerOf",
      "outputs": [
        {
          "internalType": "address",
          "name": "",
          "type": "address"
        }
      ],
      "stateMutability": "view",
      "type": "function",
      "constant": true
    },
    {
      "inputs": [
        {
          "internalType": "address",
          "name": "from",
          "type": "address"
        },
        {
          "internalType": "address",
          "name": "to",
          "type": "address"
        },
        {
          "internalType": "uint256",
          "name": "tokenId",
          "type": "uint256"
        }
      ],
      "name": "safeTransferFrom",
      "outputs": [],
      "stateMutability": "nonpayable",
      "type": "function"
    },
    {
      "inputs": [
        {
          "internalType": "address",
          "name": "from",
          "type": "address"
        },
        {
          "internalType": "address",
          "name": "to",
          "type": "address"
        },
        {
          "internalType": "uint256",
          "name": "tokenId",
          "type": "uint256"
        },
        {
          "internalType": "bytes",
          "name": "_data",
          "type": "bytes"
        }
      ],
      "name": "safeTransferFrom",
      "outputs": [],
      "stateMutability": "nonpayable",
      "type": "function"
    },
    {
      "inputs": [
        {
          "internalType": "address",
          "name": "operator",
          "type": "address"
        },
        {
          "internalType": "bool",
          "name": "approved",
          "type": "bool"
        }
      ],
      "name": "setApprovalForAll",
      "outputs": [],
      "stateMutability": "nonpayable",
      "type": "function"
    },
    {
      "inputs": [
        {
          "internalType": "bytes4",
          "name": "interfaceId",
          "type": "bytes4"
        }
      ],
      "name": "supportsInterface",
      "outputs": [
        {
          "internalType": "bool",
          "name": "",
          "type": "bool"
        }
      ],
      "stateMutability": "view",
      "type": "function",
      "constant": true
    },
    {
      "inputs": [],
      "name": "symbol",
      "outputs": [
        {
          "internalType": "string",
          "name": "",
          "type": "string"
        }
      ],
      "stateMutability": "view",
      "type": "function",
      "constant": true
    },
    {
      "inputs": [
        {
          "internalType": "uint256",
          "name": "tokenId",
          "type": "uint256"
        }
      ],
      "name": "tokenURI",
      "outputs": [
        {
          "internalType": "string",
          "name": "",
          "type": "string"
        }
      ],
      "stateMutability": "view",
      "type": "function",
      "constant": true
    },
    {
      "inputs": [
        {
          "internalType": "address",
          "name": "from",
          "type": "address"
        },
        {
          "internalType": "address",
          "name": "to",
          "type": "address"
        },
        {
          "internalType": "uint256",
          "name": "tokenId",
          "type": "uint256"
        }
      ],
      "name": "transferFrom",
      "outputs": [],
      "stateMutability": "nonpayable",
      "type": "function"
    },
    {
      "inputs": [
        {
          "internalType": "string",
          "name": "tokenURI",
          "type": "string"
        }
      ],
      "name": "mint",
      "outputs": [
        {
          "internalType": "uint256",
          "name": "",
          "type": "uint256"
        }
      ],
      "stateMutability": "nonpayable",
      "type": "function"
    }
  ],
  "bytecode": "0x60806040523480156200001157600080fd5b5060405162002f6a38038062002f6a8339818101604052810190620000379190620002c2565b818181600090805190602001906200005192919062000075565b5080600190805190602001906200006a92919062000075565b5050505050620003ac565b828054620000839062000376565b90600052602060002090601f016020900481019282620000a75760008555620000f3565b82601f10620000c257805160ff1916838001178555620000f3565b82800160010185558215620000f3579182015b82811115620000f2578251825591602001919060010190620000d5565b5b50905062000102919062000106565b5090565b5b808211156200012157600081600090555060010162000107565b5090565b6000604051905090565b600080fd5b600080fd5b600080fd5b600080fd5b6000601f19601f8301169050919050565b7f4e487b7100000000000000000000000000000000000000000000000000000000600052604160045260246000fd5b6200018e8262000143565b810181811067ffffffffffffffff82111715620001b057620001af62000154565b5b80604052505050565b6000620001c562000125565b9050620001d3828262000183565b919050565b600067ffffffffffffffff821115620001f657620001f562000154565b5b620002018262000143565b9050602081019050919050565b60005b838110156200022e57808201518184015260208101905062000211565b838111156200023e576000848401525b50505050565b60006200025b6200025584620001d8565b620001b9565b9050828152602081018484840111156200027a57620002796200013e565b5b620002878482856200020e565b509392505050565b600082601f830112620002a757620002a662000139565b5b8151620002b984826020860162000244565b91505092915050565b60008060408385031215620002dc57620002db6200012f565b5b600083015167ffffffffffffffff811115620002fd57620002fc62000134565b5b6200030b858286016200028f565b925050602083015167ffffffffffffffff8111156200032f576200032e62000134565b5b6200033d858286016200028f565b9150509250929050565b7f4e487b7100000000000000000000000000000000000000000000000000000000600052602260045260246000fd5b600060028204905060018216806200038f57607f821691505b60208210811415620003a657620003a562000347565b5b50919050565b612bae80620003bc6000396000f3fe608060405234801561001057600080fd5b50600436106100ea5760003560e01c806370a082311161008c578063b88d4fde11610066578063b88d4fde1461025b578063c87b56dd14610277578063d85d3d27146102a7578063e985e9c5146102d7576100ea565b806370a08231146101f157806395d89b4114610221578063a22cb4651461023f576100ea565b8063095ea7b3116100c8578063095ea7b31461016d57806323b872dd1461018957806342842e0e146101a55780636352211e146101c1576100ea565b806301ffc9a7146100ef57806306fdde031461011f578063081812fc1461013d575b600080fd5b61010960048036038101906101049190611923565b610307565b604051610116919061196b565b60405180910390f35b6101276103e9565b6040516101349190611a1f565b60405180910390f35b61015760048036038101906101529190611a77565b61047b565b6040516101649190611ae5565b60405180910390f35b61018760048036038101906101829190611b2c565b610500565b005b6101a3600480360381019061019e9190611b6c565b610618565b005b6101bf60048036038101906101ba9190611b6c565b610678565b005b6101db60048036038101906101d69190611a77565b610698565b6040516101e89190611ae5565b60405180910390f35b61020b60048036038101906102069190611bbf565b61074a565b6040516102189190611bfb565b60405180910390f35b610229610802565b6040516102369190611a1f565b60405180910390f35b61025960048036038101906102549190611c42565b610894565b005b61027560048036038101906102709190611db7565b6108aa565b005b610291600480360381019061028c9190611a77565b61090c565b60405161029e9190611a1f565b60405180910390f35b6102c160048036038101906102bc9190611edb565b610a5e565b6040516102ce9190611bfb565b60405180910390f35b6102f160048036038101906102ec9190611f24565b610a95565b6040516102fe919061196b565b60405180910390f35b60007f80ac58cd000000000000000000000000000000000000000000000000000000007bffffffffffffffffffffffffffffffffffffffffffffffffffffffff1916827bffffffffffffffffffffffffffffffffffffffffffffffffffffffff191614806103d257507f5b5e139f000000000000000000000000000000000000000000000000000000007bffffffffffffffffffffffffffffffffffffffffffffffffffffffff1916827bffffffffffffffffffffffffffffffffffffffffffffffffffffffff1916145b806103e257506103e182610b29565b5b9050919050565b6060600080546103f890611f93565b80601f016020809104026020016040519081016040528092919081815260200182805461042490611f93565b80156104715780601f1061044657610100808354040283529160200191610471565b820191906000526020600020905b81548152906001019060200180831161045457829003601f168201915b5050505050905090565b600061048682610b93565b6104c5576040517f08c379a00000000000000000000000000000000000000000000000000000000081526004016104bc90612037565b60405180910390fd5b6004600083815260200190815260200160002060009054906101000a900473ffffffffffffffffffffffffffffffffffffffff169050919050565b600061050b82610698565b90508073ffffffffffffffffffffffffffffffffffffffff168373ffffffffffffffffffffffffffffffffffffffff16141561057c576040517f08c379a0000000000000000000000000000000000000000000000000000000008152600401610573906120c9565b60405180910390fd5b8073ffffffffffffffffffffffffffffffffffffffff1661059b610bff565b73ffffffffffffffffffffffffffffffffffffffff1614806105ca57506105c9816105c4610bff565b610a95565b5b610609576040517f08c379a00000000000000000000000000000000000000000000000000000000081526004016106009061215b565b60405180910390fd5b6106138383610c07565b505050565b610629610623610bff565b82610cc0565b610668576040517f08c379a000000000000000000000000000000000000000000000000000000000815260040161065f906121ed565b60405180910390fd5b610673838383610d9e565b505050565b610693838383604051806020016040528060008152506108aa565b505050565b6000806002600084815260200190815260200160002060009054906101000a900473ffffffffffffffffffffffffffffffffffffffff169050600073ffffffffffffffffffffffffffffffffffffffff168173ffffffffffffffffffffffffffffffffffffffff161415610741576040517f08c379a00000000000000000000000000000000000000000000000000000000081526004016107389061227f565b60405180910390fd5b80915050919050565b60008073ffffffffffffffffffffffffffffffffffffffff168273ffffffffffffffffffffffffffffffffffffffff1614156107bb576040517f08c379a00000000000000000000000000000000000000000000000000000000081526004016107b290612311565b60405180910390fd5b600360008373ffffffffffffffffffffffffffffffffffffffff1673ffffffffffffffffffffffffffffffffffffffff168152602001908152602001600020549050919050565b60606001805461081190611f93565b80601f016020809104026020016040519081016040528092919081815260200182805461083d90611f93565b801561088a5780601f1061085f5761010080835404028352916020019161088a565b820191906000526020600020905b81548152906001019060200180831161086d57829003601f168201915b5050505050905090565b6108a661089f610bff565b8383611005565b5050565b6108bb6108b5610bff565b83610cc0565b6108fa576040517f08c379a00000000000000000000000000000000000000000000000000000000081526004016108f1906121ed565b60405180910390fd5b61090684848484611172565b50505050565b606061091782610b93565b610956576040517f08c379a000000000000000000000000000000000000000000000000000000000815260040161094d906123a3565b60405180910390fd5b600060066000848152602001908152602001600020805461097690611f93565b80601f01602080910402602001604051908101604052809291908181526020018280546109a290611f93565b80156109ef5780601f106109c4576101008083540402835291602001916109ef565b820191906000526020600020905b8154815290600101906020018083116109d257829003601f168201915b505050505090506000610a006111ce565b9050600081511415610a16578192505050610a59565b600082511115610a4b578082604051602001610a339291906123ff565b60405160208183030381529060405292505050610a59565b610a54846111e5565b925050505b919050565b6000610a6a600761128c565b6000610a7660076112a2565b9050610a8233826112b0565b610a8c818461148a565b80915050919050565b6000600560008473ffffffffffffffffffffffffffffffffffffffff1673ffffffffffffffffffffffffffffffffffffffff16815260200190815260200160002060008373ffffffffffffffffffffffffffffffffffffffff1673ffffffffffffffffffffffffffffffffffffffff16815260200190815260200160002060009054906101000a900460ff16905092915050565b60007f01ffc9a7000000000000000000000000000000000000000000000000000000007bffffffffffffffffffffffffffffffffffffffffffffffffffffffff1916827bffffffffffffffffffffffffffffffffffffffffffffffffffffffff1916149050919050565b60008073ffffffffffffffffffffffffffffffffffffffff166002600084815260200190815260200160002060009054906101000a900473ffffffffffffffffffffffffffffffffffffffff1673ffffffffffffffffffffffffffffffffffffffff1614159050919050565b600033905090565b816004600083815260200190815260200160002060006101000a81548173ffffffffffffffffffffffffffffffffffffffff021916908373ffffffffffffffffffffffffffffffffffffffff160217905550808273ffffffffffffffffffffffffffffffffffffffff16610c7a83610698565b73ffffffffffffffffffffffffffffffffffffffff167f8c5be1e5ebec7d5bd14f71427d1e84f3dd0314c0f7b2291e5b200ac8c7c3b92560405160405180910390a45050565b6000610ccb82610b93565b610d0a576040517f08c379a0000000000000000000000000000000000000000000000000000000008152600401610d0190612495565b60405180910390fd5b6000610d1583610698565b90508073ffffffffffffffffffffffffffffffffffffffff168473ffffffffffffffffffffffffffffffffffffffff161480610d8457508373ffffffffffffffffffffffffffffffffffffffff16610d6c8461047b565b73ffffffffffffffffffffffffffffffffffffffff16145b80610d955750610d948185610a95565b5b91505092915050565b8273ffffffffffffffffffffffffffffffffffffffff16610dbe82610698565b73ffffffffffffffffffffffffffffffffffffffff1614610e14576040517f08c379a0000000000000000000000000000000000000000000000000000000008152600401610e0b90612527565b60405180910390fd5b600073ffffffffffffffffffffffffffffffffffffffff168273ffffffffffffffffffffffffffffffffffffffff161415610e84576040517f08c379a0000000000000000000000000000000000000000000000000000000008152600401610e7b906125b9565b60405180910390fd5b610e8f8383836114fe565b610e9a600082610c07565b6001600360008573ffffffffffffffffffffffffffffffffffffffff1673ffffffffffffffffffffffffffffffffffffffff1681526020019081526020016000206000828254610eea9190612608565b925050819055506001600360008473ffffffffffffffffffffffffffffffffffffffff1673ffffffffffffffffffffffffffffffffffffffff1681526020019081526020016000206000828254610f41919061263c565b92505081905550816002600083815260200190815260200160002060006101000a81548173ffffffffffffffffffffffffffffffffffffffff021916908373ffffffffffffffffffffffffffffffffffffffff160217905550808273ffffffffffffffffffffffffffffffffffffffff168473ffffffffffffffffffffffffffffffffffffffff167fddf252ad1be2c89b69c2b068fc378daa952ba7f163c4a11628f55a4df523b3ef60405160405180910390a4611000838383611503565b505050565b8173ffffffffffffffffffffffffffffffffffffffff168373ffffffffffffffffffffffffffffffffffffffff161415611074576040517f08c379a000000000000000000000000000000000000000000000000000000000815260040161106b906126de565b60405180910390fd5b80600560008573ffffffffffffffffffffffffffffffffffffffff1673ffffffffffffffffffffffffffffffffffffffff16815260200190815260200160002060008473ffffffffffffffffffffffffffffffffffffffff1673ffffffffffffffffffffffffffffffffffffffff16815260200190815260200160002060006101000a81548160ff0219169083151502179055508173ffffffffffffffffffffffffffffffffffffffff168373ffffffffffffffffffffffffffffffffffffffff167f17307eab39ab6107e8899845ad3d59bd9653f200f220920489ca2b5937696c3183604051611165919061196b565b60405180910390a3505050565b61117d848484610d9e565b61118984848484611508565b6111c8576040517f08c379a00000000000000000000000000000000000000000000000000000000081526004016111bf90612770565b60405180910390fd5b50505050565b606060405180602001604052806000815250905090565b60606111f082610b93565b61122f576040517f08c379a000000000000000000000000000000000000000000000000000000000815260040161122690612802565b60405180910390fd5b60006112396111ce565b905060008151116112595760405180602001604052806000815250611284565b8061126384611690565b6040516020016112749291906123ff565b6040516020818303038152906040525b915050919050565b6001816000016000828254019250508190555050565b600081600001549050919050565b600073ffffffffffffffffffffffffffffffffffffffff168273ffffffffffffffffffffffffffffffffffffffff161415611320576040517f08c379a00000000000000000000000000000000000000000000000000000000081526004016113179061286e565b60405180910390fd5b61132981610b93565b15611369576040517f08c379a0000000000000000000000000000000000000000000000000000000008152600401611360906128da565b60405180910390fd5b611375600083836114fe565b6001600360008473ffffffffffffffffffffffffffffffffffffffff1673ffffffffffffffffffffffffffffffffffffffff16815260200190815260200160002060008282546113c5919061263c565b92505081905550816002600083815260200190815260200160002060006101000a81548173ffffffffffffffffffffffffffffffffffffffff021916908373ffffffffffffffffffffffffffffffffffffffff160217905550808273ffffffffffffffffffffffffffffffffffffffff16600073ffffffffffffffffffffffffffffffffffffffff167fddf252ad1be2c89b69c2b068fc378daa952ba7f163c4a11628f55a4df523b3ef60405160405180910390a461148660008383611503565b5050565b61149382610b93565b6114d2576040517f08c379a00000000000000000000000000000000000000000000000000000000081526004016114c99061296c565b60405180910390fd5b806006600084815260200190815260200160002090805190602001906114f9929190611814565b505050565b505050565b505050565b60006115298473ffffffffffffffffffffffffffffffffffffffff166117f1565b15611683578373ffffffffffffffffffffffffffffffffffffffff1663150b7a02611552610bff565b8786866040518563ffffffff1660e01b815260040161157494939291906129e1565b6020604051808303816000875af19250505080156115b057506040513d601f19601f820116820180604052508101906115ad9190612a42565b60015b611633573d80600081146115e0576040519150601f19603f3d011682016040523d82523d6000602084013e6115e5565b606091505b5060008151141561162b576040517f08c379a000000000000000000000000000000000000000000000000000000000815260040161162290612770565b60405180910390fd5b805181602001fd5b63150b7a0260e01b7bffffffffffffffffffffffffffffffffffffffffffffffffffffffff1916817bffffffffffffffffffffffffffffffffffffffffffffffffffffffff191614915050611688565b600190505b949350505050565b606060008214156116d8576040518060400160405280600181526020017f300000000000000000000000000000000000000000000000000000000000000081525090506117ec565b600082905060005b6000821461170a5780806116f390612a6f565b915050600a826117039190612ae7565b91506116e0565b60008167ffffffffffffffff81111561172657611725611c8c565b5b6040519080825280601f01601f1916602001820160405280156117585781602001600182028036833780820191505090505b5090505b600085146117e5576001826117719190612608565b9150600a856117809190612b18565b603061178c919061263c565b60f81b8183815181106117a2576117a1612b49565b5b60200101907effffffffffffffffffffffffffffffffffffffffffffffffffffffffffffff1916908160001a905350600a856117de9190612ae7565b945061175c565b8093505050505b919050565b6000808273ffffffffffffffffffffffffffffffffffffffff163b119050919050565b82805461182090611f93565b90600052602060002090601f0160209004810192826118425760008555611889565b82601f1061185b57805160ff1916838001178555611889565b82800160010185558215611889579182015b8281111561188857825182559160200191906001019061186d565b5b509050611896919061189a565b5090565b5b808211156118b357600081600090555060010161189b565b5090565b6000604051905090565b600080fd5b600080fd5b60007fffffffff0000000000000000000000000000000000000000000000000000000082169050919050565b611900816118cb565b811461190b57600080fd5b50565b60008135905061191d816118f7565b92915050565b600060208284031215611939576119386118c1565b5b60006119478482850161190e565b91505092915050565b60008115159050919050565b61196581611950565b82525050565b6000602082019050611980600083018461195c565b92915050565b600081519050919050565b600082825260208201905092915050565b60005b838110156119c05780820151818401526020810190506119a5565b838111156119cf576000848401525b50505050565b6000601f19601f8301169050919050565b60006119f182611986565b6119fb8185611991565b9350611a0b8185602086016119a2565b611a14816119d5565b840191505092915050565b60006020820190508181036000830152611a3981846119e6565b905092915050565b6000819050919050565b611a5481611a41565b8114611a5f57600080fd5b50565b600081359050611a7181611a4b565b92915050565b600060208284031215611a8d57611a8c6118c1565b5b6000611a9b84828501611a62565b91505092915050565b600073ffffffffffffffffffffffffffffffffffffffff82169050919050565b6000611acf82611aa4565b9050919050565b611adf81611ac4565b82525050565b6000602082019050611afa6000830184611ad6565b92915050565b611b0981611ac4565b8114611b1457600080fd5b50565b600081359050611b2681611b00565b92915050565b60008060408385031215611b4357611b426118c1565b5b6000611b5185828601611b17565b9250506020611b6285828601611a62565b9150509250929050565b600080600060608486031215611b8557611b846118c1565b5b6000611b9386828701611b17565b9350506020611ba486828701611b17565b9250506040611bb586828701611a62565b9150509250925092565b600060208284031215611bd557611bd46118c1565b5b6000611be384828501611b17565b91505092915050565b611bf581611a41565b82525050565b6000602082019050611c106000830184611bec565b92915050565b611c1f81611950565b8114611c2a57600080fd5b50565b600081359050611c3c81611c16565b92915050565b60008060408385031215611c5957611c586118c1565b5b6000611c6785828601611b17565b9250506020611c7885828601611c2d565b9150509250929050565b600080fd5b600080fd5b7f4e487b7100000000000000000000000000000000000000000000000000000000600052604160045260246000fd5b611cc4826119d5565b810181811067ffffffffffffffff82111715611ce357611ce2611c8c565b5b80604052505050565b6000611cf66118b7565b9050611d028282611cbb565b919050565b600067ffffffffffffffff821115611d2257611d21611c8c565b5b611d2b826119d5565b9050602081019050919050565b82818337600083830152505050565b6000611d5a611d5584611d07565b611cec565b905082815260208101848484011115611d7657611d75611c87565b5b611d81848285611d38565b509392505050565b600082601f830112611d9e57611d9d611c82565b5b8135611dae848260208601611d47565b91505092915050565b60008060008060808587031215611dd157611dd06118c1565b5b6000611ddf87828801611b17565b9450506020611df087828801611b17565b9350506040611e0187828801611a62565b925050606085013567ffffffffffffffff811115611e2257611e216118c6565b5b611e2e87828801611d89565b91505092959194509250565b600067ffffffffffffffff821115611e5557611e54611c8c565b5b611e5e826119d5565b9050602081019050919050565b6000611e7e611e7984611e3a565b611cec565b905082815260208101848484011115611e9a57611e99611c87565b5b611ea5848285611d38565b509392505050565b600082601f830112611ec257611ec1611c82565b5b8135611ed2848260208601611e6b565b91505092915050565b600060208284031215611ef157611ef06118c1565b5b600082013567ffffffffffffffff811115611f0f57611f0e6118c6565b5b611f1b84828501611ead565b91505092915050565b60008060408385031215611f3b57611f3a6118c1565b5b6000611f4985828601611b17565b9250506020611f5a85828601611b17565b9150509250929050565b7f4e487b7100000000000000000000000000000000000000000000000000000000600052602260045260246000fd5b60006002820490506001821680611fab57607f821691505b60208210811415611fbf57611fbe611f64565b5b50919050565b7f4552433732313a20617070726f76656420717565727920666f72206e6f6e657860008201527f697374656e7420746f6b656e0000000000000000000000000000000000000000602082015250565b6000612021602c83611991565b915061202c82611fc5565b604082019050919050565b6000602082019050818103600083015261205081612014565b9050919050565b7f4552433732313a20617070726f76616c20746f2063757272656e74206f776e6560008201527f7200000000000000000000000000000000000000000000000000000000000000602082015250565b60006120b3602183611991565b91506120be82612057565b604082019050919050565b600060208201905081810360008301526120e2816120a6565b9050919050565b7f4552433732313a20617070726f76652063616c6c6572206973206e6f74206f7760008201527f6e6572206e6f7220617070726f76656420666f7220616c6c0000000000000000602082015250565b6000612145603883611991565b9150612150826120e9565b604082019050919050565b6000602082019050818103600083015261217481612138565b9050919050565b7f4552433732313a207472616e736665722063616c6c6572206973206e6f74206f60008201527f776e6572206e6f7220617070726f766564000000000000000000000000000000602082015250565b60006121d7603183611991565b91506121e28261217b565b604082019050919050565b60006020820190508181036000830152612206816121ca565b9050919050565b7f4552433732313a206f776e657220717565727920666f72206e6f6e657869737460008201527f656e7420746f6b656e0000000000000000000000000000000000000000000000602082015250565b6000612269602983611991565b91506122748261220d565b604082019050919050565b600060208201905081810360008301526122988161225c565b9050919050565b7f4552433732313a2062616c616e636520717565727920666f7220746865207a6560008201527f726f206164647265737300000000000000000000000000000000000000000000602082015250565b60006122fb602a83611991565b91506123068261229f565b604082019050919050565b6000602082019050818103600083015261232a816122ee565b9050919050565b7f45524337323155524953746f726167653a2055524920717565727920666f722060008201527f6e6f6e6578697374656e7420746f6b656e000000000000000000000000000000602082015250565b600061238d603183611991565b915061239882612331565b604082019050919050565b600060208201905081810360008301526123bc81612380565b9050919050565b600081905092915050565b60006123d982611986565b6123e381856123c3565b93506123f38185602086016119a2565b80840191505092915050565b600061240b82856123ce565b915061241782846123ce565b91508190509392505050565b7f4552433732313a206f70657261746f7220717565727920666f72206e6f6e657860008201527f697374656e7420746f6b656e0000000000000000000000000000000000000000602082015250565b600061247f602c83611991565b915061248a82612423565b604082019050919050565b600060208201905081810360008301526124ae81612472565b9050919050565b7f4552433732313a207472616e736665722066726f6d20696e636f72726563742060008201527f6f776e6572000000000000000000000000000000000000000000000000000000602082015250565b6000612511602583611991565b915061251c826124b5565b604082019050919050565b6000602082019050818103600083015261254081612504565b9050919050565b7f4552433732313a207472616e7366657220746f20746865207a65726f2061646460008201527f7265737300000000000000000000000000000000000000000000000000000000602082015250565b60006125a3602483611991565b91506125ae82612547565b604082019050919050565b600060208201905081810360008301526125d281612596565b9050919050565b7f4e487b7100000000000000000000000000000000000000000000000000000000600052601160045260246000fd5b600061261382611a41565b915061261e83611a41565b925082821015612631576126306125d9565b5b828203905092915050565b600061264782611a41565b915061265283611a41565b9250827fffffffffffffffffffffffffffffffffffffffffffffffffffffffffffffffff03821115612687576126866125d9565b5b828201905092915050565b7f4552433732313a20617070726f766520746f2063616c6c657200000000000000600082015250565b60006126c8601983611991565b91506126d382612692565b602082019050919050565b600060208201905081810360008301526126f7816126bb565b9050919050565b7f4552433732313a207472616e7366657220746f206e6f6e20455243373231526560008201527f63656976657220696d706c656d656e7465720000000000000000000000000000602082015250565b600061275a603283611991565b9150612765826126fe565b604082019050919050565b600060208201905081810360008301526127898161274d565b9050919050565b7f4552433732314d657461646174613a2055524920717565727920666f72206e6f60008201527f6e6578697374656e7420746f6b656e0000000000000000000000000000000000602082015250565b60006127ec602f83611991565b91506127f782612790565b604082019050919050565b6000602082019050818103600083015261281b816127df565b9050919050565b7f4552433732313a206d696e7420746f20746865207a65726f2061646472657373600082015250565b6000612858602083611991565b915061286382612822565b602082019050919050565b600060208201905081810360008301526128878161284b565b9050919050565b7f4552433732313a20746f6b656e20616c7265616479206d696e74656400000000600082015250565b60006128c4601c83611991565b91506128cf8261288e565b602082019050919050565b600060208201905081810360008301526128f3816128b7565b9050919050565b7f45524337323155524953746f726167653a2055524920736574206f66206e6f6e60008201527f6578697374656e7420746f6b656e000000000000000000000000000000000000602082015250565b6000612956602e83611991565b9150612961826128fa565b604082019050919050565b6000602082019050818103600083015261298581612949565b9050919050565b600081519050919050565b600082825260208201905092915050565b60006129b38261298c565b6129bd8185612997565b93506129cd8185602086016119a2565b6129d6816119d5565b840191505092915050565b60006080820190506129f66000830187611ad6565b612a036020830186611ad6565b612a106040830185611bec565b8181036060830152612a2281846129a8565b905095945050505050565b600081519050612a3c816118f7565b92915050565b600060208284031215612a5857612a576118c1565b5b6000612a6684828501612a2d565b91505092915050565b6000612a7a82611a41565b91507fffffffffffffffffffffffffffffffffffffffffffffffffffffffffffffffff821415612aad57612aac6125d9565b5b600182019050919050565b7f4e487b7100000000000000000000000000000000000000000000000000000000600052601260045260246000fd5b6000612af282611a41565b9150612afd83611a41565b925082612b0d57612b0c612ab8565b5b828204905092915050565b6000612b2382611a41565b9150612b2e83611a41565b925082612b3e57612b3d612ab8565b5b828206905092915050565b7f4e487b7100000000000000000000000000000000000000000000000000000000600052603260045260246000fdfea2646970667358221220160890ca0466d5bf3ca4d0b9b20aaa6681ce9b62867f696734ce201a58d0e2e364736f6c634300080c0033",
  "immutableReferences": {},
  "source": "// contracts/GameItem.sol\r\n// SPDX-License-Identifier: MIT\r\npragma solidity ^0.8.0;\r\n\r\nimport \"@openzeppelin/contracts/token/ERC721/ERC721.sol\";\r\nimport \"@openzeppelin/contracts/token/ERC721/extensions/ERC721URIStorage.sol\";\r\nimport \"@openzeppelin/contracts/utils/Counters.sol\";\r\n\r\ncontract SuperMarioWorld is ERC721URIStorage {\r\n    using Counters for Counters.Counter;\r\n    Counters.Counter private _tokenIds;\r\n\r\n    constructor(string memory name, string memory symbol) ERC721(name,symbol) {}\r\n\r\n    function mint(string memory tokenURI)\r\n        public\r\n        returns (uint256)\r\n    {\r\n        _tokenIds.increment();\r\n\r\n        uint256 newItemId = _tokenIds.current();\r\n        _mint(msg.sender, newItemId);\r\n        _setTokenURI(newItemId, tokenURI);\r\n\r\n        return newItemId;\r\n    }\r\n}",
  "sourcePath": "C:\\Users\\ojasm\\Documents\\Blockchain\\EatTheBlocks\\erc721\\contracts\\SuperMarioWorld.sol",
  "compiler": {
    "name": "solc",
    "version": "0.8.12+commit.f00d7308.Emscripten.clang"
  },
  "schemaVersion": "3.4.3",
  "updatedAt": "2022-03-14T18:18:16.849Z",
  "networkType": "ethereum",
  "devdoc": {
    "kind": "dev",
    "methods": {
      "approve(address,uint256)": {
        "details": "See {IERC721-approve}."
      },
      "balanceOf(address)": {
        "details": "See {IERC721-balanceOf}."
      },
      "getApproved(uint256)": {
        "details": "See {IERC721-getApproved}."
      },
      "isApprovedForAll(address,address)": {
        "details": "See {IERC721-isApprovedForAll}."
      },
      "name()": {
        "details": "See {IERC721Metadata-name}."
      },
      "ownerOf(uint256)": {
        "details": "See {IERC721-ownerOf}."
      },
      "safeTransferFrom(address,address,uint256)": {
        "details": "See {IERC721-safeTransferFrom}."
      },
      "safeTransferFrom(address,address,uint256,bytes)": {
        "details": "See {IERC721-safeTransferFrom}."
      },
      "setApprovalForAll(address,bool)": {
        "details": "See {IERC721-setApprovalForAll}."
      },
      "supportsInterface(bytes4)": {
        "details": "See {IERC165-supportsInterface}."
      },
      "symbol()": {
        "details": "See {IERC721Metadata-symbol}."
      },
      "tokenURI(uint256)": {
        "details": "See {IERC721Metadata-tokenURI}."
      },
      "transferFrom(address,address,uint256)": {
        "details": "See {IERC721-transferFrom}."
      }
    },
    "version": 1
  },
  "userdoc": {
    "kind": "user",
    "methods": {},
    "version": 1
  }
}